{
  "contractName": "Test",
  "abi": [
    {
      "inputs": [],
      "stateMutability": "nonpayable",
      "type": "constructor"
    },
    {
      "inputs": [
        {
          "internalType": "uint256",
          "name": "",
          "type": "uint256"
        }
      ],
      "name": "user_list2",
      "outputs": [
        {
          "internalType": "string",
          "name": "password",
          "type": "string"
        },
        {
          "internalType": "string",
          "name": "name",
          "type": "string"
        },
        {
          "internalType": "uint8",
          "name": "age",
          "type": "uint8"
        }
      ],
      "stateMutability": "view",
      "type": "function",
      "constant": true
    },
    {
      "inputs": [
        {
          "internalType": "string",
          "name": "_id",
          "type": "string"
        },
        {
          "internalType": "string",
          "name": "_pass",
          "type": "string"
        },
        {
          "internalType": "string",
          "name": "_name",
          "type": "string"
        },
        {
          "internalType": "uint8",
          "name": "_age",
          "type": "uint8"
        }
      ],
      "name": "add_user",
      "outputs": [],
      "stateMutability": "nonpayable",
      "type": "function"
    },
    {
      "inputs": [
        {
          "internalType": "string",
          "name": "_id",
          "type": "string"
        }
      ],
      "name": "view_user",
      "outputs": [
        {
          "internalType": "string",
          "name": "",
          "type": "string"
        },
        {
          "internalType": "string",
          "name": "",
          "type": "string"
        },
        {
          "internalType": "uint8",
          "name": "",
          "type": "uint8"
        }
      ],
      "stateMutability": "view",
      "type": "function",
      "constant": true
    }
  ],
  "bytecode": "0x608060405234801561001057600080fd5b50336000806101000a81548173ffffffffffffffffffffffffffffffffffffffff021916908373ffffffffffffffffffffffffffffffffffffffff1602179055506000600181905550610c8d806100686000396000f3fe608060405234801561001057600080fd5b50600436106100415760003560e01c80631cd136db14610046578063396d3f9114610062578063dda3911114610094575b600080fd5b610060600480360381019061005b9190610677565b6100c6565b005b61007c60048036038101906100779190610768565b6101f2565b60405161008b9392919061082c565b60405180910390f35b6100ae60048036038101906100a99190610871565b610349565b6040516100bd9392919061082c565b60405180910390f35b60008054906101000a900473ffffffffffffffffffffffffffffffffffffffff1673ffffffffffffffffffffffffffffffffffffffff163373ffffffffffffffffffffffffffffffffffffffff1614610154576040517f08c379a000000000000000000000000000000000000000000000000000000000815260040161014b90610906565b60405180910390fd5b826002856040516101659190610962565b908152602001604051809103902060000190816101829190610b85565b50816002856040516101949190610962565b908152602001604051809103902060010190816101b19190610b85565b50806002856040516101c39190610962565b908152602001604051809103902060020160006101000a81548160ff021916908360ff16021790555050505050565b6004818154811061020257600080fd5b9060005260206000209060030201600091509050806000018054610225906109a8565b80601f0160208091040260200160405190810160405280929190818152602001828054610251906109a8565b801561029e5780601f106102735761010080835404028352916020019161029e565b820191906000526020600020905b81548152906001019060200180831161028157829003601f168201915b5050505050908060010180546102b3906109a8565b80601f01602080910402602001604051908101604052809291908181526020018280546102df906109a8565b801561032c5780601f106103015761010080835404028352916020019161032c565b820191906000526020600020905b81548152906001019060200180831161030f57829003601f168201915b5050505050908060020160009054906101000a900460ff16905083565b606080600060028460405161035e9190610962565b908152602001604051809103902060000160028560405161037f9190610962565b90815260200160405180910390206001016002866040516103a09190610962565b908152602001604051809103902060020160009054906101000a900460ff168280546103cb906109a8565b80601f01602080910402602001604051908101604052809291908181526020018280546103f7906109a8565b80156104445780601f1061041957610100808354040283529160200191610444565b820191906000526020600020905b81548152906001019060200180831161042757829003601f168201915b50505050509250818054610457906109a8565b80601f0160208091040260200160405190810160405280929190818152602001828054610483906109a8565b80156104d05780601f106104a5576101008083540402835291602001916104d0565b820191906000526020600020905b8154815290600101906020018083116104b357829003601f168201915b505050505091509250925092509193909250565b6000604051905090565b600080fd5b600080fd5b600080fd5b600080fd5b6000601f19601f8301169050919050565b7f4e487b7100000000000000000000000000000000000000000000000000000000600052604160045260246000fd5b61054b82610502565b810181811067ffffffffffffffff8211171561056a57610569610513565b5b80604052505050565b600061057d6104e4565b90506105898282610542565b919050565b600067ffffffffffffffff8211156105a9576105a8610513565b5b6105b282610502565b9050602081019050919050565b82818337600083830152505050565b60006105e16105dc8461058e565b610573565b9050828152602081018484840111156105fd576105fc6104fd565b5b6106088482856105bf565b509392505050565b600082601f830112610625576106246104f8565b5b81356106358482602086016105ce565b91505092915050565b600060ff82169050919050565b6106548161063e565b811461065f57600080fd5b50565b6000813590506106718161064b565b92915050565b60008060008060808587031215610691576106906104ee565b5b600085013567ffffffffffffffff8111156106af576106ae6104f3565b5b6106bb87828801610610565b945050602085013567ffffffffffffffff8111156106dc576106db6104f3565b5b6106e887828801610610565b935050604085013567ffffffffffffffff811115610709576107086104f3565b5b61071587828801610610565b925050606061072687828801610662565b91505092959194509250565b6000819050919050565b61074581610732565b811461075057600080fd5b50565b6000813590506107628161073c565b92915050565b60006020828403121561077e5761077d6104ee565b5b600061078c84828501610753565b91505092915050565b600081519050919050565b600082825260208201905092915050565b60005b838110156107cf5780820151818401526020810190506107b4565b838111156107de576000848401525b50505050565b60006107ef82610795565b6107f981856107a0565b93506108098185602086016107b1565b61081281610502565b840191505092915050565b6108268161063e565b82525050565b6000606082019050818103600083015261084681866107e4565b9050818103602083015261085a81856107e4565b9050610869604083018461081d565b949350505050565b600060208284031215610887576108866104ee565b5b600082013567ffffffffffffffff8111156108a5576108a46104f3565b5b6108b184828501610610565b91505092915050565b7f4f6e6c79206f776e65722063616e2063616c6c2066756e6374696f6e00000000600082015250565b60006108f0601c836107a0565b91506108fb826108ba565b602082019050919050565b6000602082019050818103600083015261091f816108e3565b9050919050565b600081905092915050565b600061093c82610795565b6109468185610926565b93506109568185602086016107b1565b80840191505092915050565b600061096e8284610931565b915081905092915050565b7f4e487b7100000000000000000000000000000000000000000000000000000000600052602260045260246000fd5b600060028204905060018216806109c057607f821691505b6020821081036109d3576109d2610979565b5b50919050565b60008190508160005260206000209050919050565b60006020601f8301049050919050565b600082821b905092915050565b600060088302610a3b7fffffffffffffffffffffffffffffffffffffffffffffffffffffffffffffffff826109fe565b610a4586836109fe565b95508019841693508086168417925050509392505050565b6000819050919050565b6000610a82610a7d610a7884610732565b610a5d565b610732565b9050919050565b6000819050919050565b610a9c83610a67565b610ab0610aa882610a89565b848454610a0b565b825550505050565b600090565b610ac5610ab8565b610ad0818484610a93565b505050565b5b81811015610af457610ae9600082610abd565b600181019050610ad6565b5050565b601f821115610b3957610b0a816109d9565b610b13846109ee565b81016020851015610b22578190505b610b36610b2e856109ee565b830182610ad5565b50505b505050565b600082821c905092915050565b6000610b5c60001984600802610b3e565b1980831691505092915050565b6000610b758383610b4b565b9150826002028217905092915050565b610b8e82610795565b67ffffffffffffffff811115610ba757610ba6610513565b5b610bb182546109a8565b610bbc828285610af8565b600060209050601f831160018114610bef5760008415610bdd578287015190505b610be78582610b69565b865550610c4f565b601f198416610bfd866109d9565b60005b82811015610c2557848901518255600182019150602085019450602081019050610c00565b86831015610c425784890151610c3e601f891682610b4b565b8355505b6001600288020188555050505b50505050505056fea264697066735822122063a0008dd493def9804ddd928ce9cb778f90b10a2dc6113033a86ef13036476b64736f6c634300080f0033",
  "immutableReferences": {},
  "source": "// SPDX-License-Identifier: MIT\r\npragma solidity ^0.8.15;\r\n\r\ncontract Test {\r\n    //  \r\n    address internal owner;\r\n    uint internal count;\r\n\r\n    //  \r\n    struct user_info{\r\n        string password;\r\n        string name;\r\n        uint8 age;\r\n    }\r\n\r\n    //  \r\n    //        \r\n    constructor(){\r\n        //  msg.sender deploy   \r\n        owner = msg.sender;\r\n        count = 0;\r\n    }\r\n\r\n    // mapping   \r\n    mapping (string => user_info) internal users;\r\n\r\n    //    \r\n    string[] internal user_list;\r\n\r\n    //     \r\n    user_info[] public user_list2;\r\n\r\n\r\n    // modifier\r\n    modifier onlyOwner{\r\n        require(msg.sender == owner, \"Only owner can call function\");\r\n        _;\r\n    }\r\n\r\n    modifier increament{\r\n        _;\r\n        count++;\r\n    }\r\n\r\n    //   users mapping \r\n    function add_user(\r\n        string memory _id, \r\n        string memory _pass, \r\n        string memory _name, \r\n        uint8 _age\r\n    ) public onlyOwner {\r\n        // require(msg.sender == owner, \"only owner can call function\");\r\n        // mapping    \r\n        users[_id].password = _pass;\r\n        users[_id].name = _name;\r\n        users[_id].age = _age;\r\n    }\r\n\r\n    //     \r\n    function view_user(\r\n        string memory _id\r\n    ) public view returns (\r\n        string memory, \r\n        string memory, \r\n        uint8\r\n    ){\r\n        return (\r\n            users[_id].password, \r\n            users[_id].name, \r\n            users[_id].age\r\n        );\r\n    }\r\n} ",
  "sourcePath": "C:\\Users\\moons\\Documents\\GitHub\\blockchain06\\contract_server\\contracts\\test.sol",
  "compiler": {
    "name": "solc",
    "version": "0.8.15+commit.e14f2714.Emscripten.clang"
  },
  "schemaVersion": "3.4.14",
  "updatedAt": "2023-06-14T02:12:04.031Z",
  "networkType": "ethereum",
  "devdoc": {
    "kind": "dev",
    "methods": {},
    "version": 1
  },
  "userdoc": {
    "kind": "user",
    "methods": {},
    "version": 1
  }
}