{
  "contractName": "Test",
  "abi": [
    {
      "inputs": [],
      "stateMutability": "nonpayable",
      "type": "constructor"
    },
    {
      "inputs": [
        {
          "internalType": "string",
          "name": "_id",
          "type": "string"
        },
        {
          "internalType": "string",
          "name": "_pass",
          "type": "string"
        },
        {
          "internalType": "string",
          "name": "_name",
          "type": "string"
        },
        {
          "internalType": "uint8",
          "name": "_age",
          "type": "uint8"
        }
      ],
      "name": "add_user",
      "outputs": [],
      "stateMutability": "nonpayable",
      "type": "function"
    },
    {
      "inputs": [
        {
          "internalType": "string",
          "name": "_id",
          "type": "string"
        }
      ],
      "name": "view_user",
      "outputs": [
        {
          "internalType": "string",
          "name": "",
          "type": "string"
        },
        {
          "internalType": "string",
          "name": "",
          "type": "string"
        },
        {
          "internalType": "uint8",
          "name": "",
          "type": "uint8"
        }
      ],
      "stateMutability": "view",
      "type": "function",
      "constant": true
    },
    {
      "inputs": [],
      "name": "view_count",
      "outputs": [
        {
          "internalType": "uint256",
          "name": "",
          "type": "uint256"
        }
      ],
      "stateMutability": "view",
      "type": "function",
      "constant": true
    },
    {
      "inputs": [],
      "name": "view_list",
      "outputs": [
        {
          "internalType": "string[]",
          "name": "",
          "type": "string[]"
        }
      ],
      "stateMutability": "view",
      "type": "function",
      "constant": true
    },
    {
      "inputs": [
        {
          "internalType": "string",
          "name": "_id",
          "type": "string"
        }
      ],
      "name": "check_id",
      "outputs": [
        {
          "internalType": "bool",
          "name": "",
          "type": "bool"
        }
      ],
      "stateMutability": "view",
      "type": "function",
      "constant": true
    }
  ],
  "bytecode": "0x608060405234801561001057600080fd5b50336000806101000a81548173ffffffffffffffffffffffffffffffffffffffff021916908373ffffffffffffffffffffffffffffffffffffffff1602179055506000600181905550610eaf806100686000396000f3fe608060405234801561001057600080fd5b50600436106100575760003560e01c8063147202111461005c5780631cd136db1461008c57806339c614a1146100a85780636ddfdee9146100c6578063dda39111146100e4575b600080fd5b610076600480360381019061007191906106b4565b610116565b6040516100839190610718565b60405180910390f35b6100a660048036038101906100a1919061076c565b610163565b005b6100b06102dc565b6040516100bd9190610840565b60405180910390f35b6100ce6102e6565b6040516100db91906109a5565b60405180910390f35b6100fe60048036038101906100f991906106b4565b6103bf565b60405161010d93929190610a20565b60405180910390f35b6000806002836040516101299190610aa1565b908152602001604051809103902060020160009054906101000a900460ff1660ff1614610159576000905061015e565b600190505b919050565b60008054906101000a900473ffffffffffffffffffffffffffffffffffffffff1673ffffffffffffffffffffffffffffffffffffffff163373ffffffffffffffffffffffffffffffffffffffff16146101f1576040517f08c379a00000000000000000000000000000000000000000000000000000000081526004016101e890610b04565b60405180910390fd5b826002856040516102029190610aa1565b9081526020016040518091039020600001908161021f9190610d30565b50816002856040516102319190610aa1565b9081526020016040518091039020600101908161024e9190610d30565b50806002856040516102609190610aa1565b908152602001604051809103902060020160006101000a81548160ff021916908360ff1602179055506003849080600181540180825580915050600190039060005260206000200160009091909190915090816102bd9190610d30565b50600160008154809291906102d190610e31565b919050555050505050565b6000600154905090565b60606003805480602002602001604051908101604052809291908181526020016000905b828210156103b657838290600052602060002001805461032990610b53565b80601f016020809104026020016040519081016040528092919081815260200182805461035590610b53565b80156103a25780601f10610377576101008083540402835291602001916103a2565b820191906000526020600020905b81548152906001019060200180831161038557829003601f168201915b50505050508152602001906001019061030a565b50505050905090565b60608060006002846040516103d49190610aa1565b90815260200160405180910390206000016002856040516103f59190610aa1565b90815260200160405180910390206001016002866040516104169190610aa1565b908152602001604051809103902060020160009054906101000a900460ff1682805461044190610b53565b80601f016020809104026020016040519081016040528092919081815260200182805461046d90610b53565b80156104ba5780601f1061048f576101008083540402835291602001916104ba565b820191906000526020600020905b81548152906001019060200180831161049d57829003601f168201915b505050505092508180546104cd90610b53565b80601f01602080910402602001604051908101604052809291908181526020018280546104f990610b53565b80156105465780601f1061051b57610100808354040283529160200191610546565b820191906000526020600020905b81548152906001019060200180831161052957829003601f168201915b505050505091509250925092509193909250565b6000604051905090565b600080fd5b600080fd5b600080fd5b600080fd5b6000601f19601f8301169050919050565b7f4e487b7100000000000000000000000000000000000000000000000000000000600052604160045260246000fd5b6105c182610578565b810181811067ffffffffffffffff821117156105e0576105df610589565b5b80604052505050565b60006105f361055a565b90506105ff82826105b8565b919050565b600067ffffffffffffffff82111561061f5761061e610589565b5b61062882610578565b9050602081019050919050565b82818337600083830152505050565b600061065761065284610604565b6105e9565b90508281526020810184848401111561067357610672610573565b5b61067e848285610635565b509392505050565b600082601f83011261069b5761069a61056e565b5b81356106ab848260208601610644565b91505092915050565b6000602082840312156106ca576106c9610564565b5b600082013567ffffffffffffffff8111156106e8576106e7610569565b5b6106f484828501610686565b91505092915050565b60008115159050919050565b610712816106fd565b82525050565b600060208201905061072d6000830184610709565b92915050565b600060ff82169050919050565b61074981610733565b811461075457600080fd5b50565b60008135905061076681610740565b92915050565b6000806000806080858703121561078657610785610564565b5b600085013567ffffffffffffffff8111156107a4576107a3610569565b5b6107b087828801610686565b945050602085013567ffffffffffffffff8111156107d1576107d0610569565b5b6107dd87828801610686565b935050604085013567ffffffffffffffff8111156107fe576107fd610569565b5b61080a87828801610686565b925050606061081b87828801610757565b91505092959194509250565b6000819050919050565b61083a81610827565b82525050565b60006020820190506108556000830184610831565b92915050565b600081519050919050565b600082825260208201905092915050565b6000819050602082019050919050565b600081519050919050565b600082825260208201905092915050565b60005b838110156108c15780820151818401526020810190506108a6565b838111156108d0576000848401525b50505050565b60006108e182610887565b6108eb8185610892565b93506108fb8185602086016108a3565b61090481610578565b840191505092915050565b600061091b83836108d6565b905092915050565b6000602082019050919050565b600061093b8261085b565b6109458185610866565b93508360208202850161095785610877565b8060005b858110156109935784840389528151610974858261090f565b945061097f83610923565b925060208a0199505060018101905061095b565b50829750879550505050505092915050565b600060208201905081810360008301526109bf8184610930565b905092915050565b600082825260208201905092915050565b60006109e382610887565b6109ed81856109c7565b93506109fd8185602086016108a3565b610a0681610578565b840191505092915050565b610a1a81610733565b82525050565b60006060820190508181036000830152610a3a81866109d8565b90508181036020830152610a4e81856109d8565b9050610a5d6040830184610a11565b949350505050565b600081905092915050565b6000610a7b82610887565b610a858185610a65565b9350610a958185602086016108a3565b80840191505092915050565b6000610aad8284610a70565b915081905092915050565b7f4f6e6c79206f776e65722063616e2063616c6c2066756e6374696f6e00000000600082015250565b6000610aee601c836109c7565b9150610af982610ab8565b602082019050919050565b60006020820190508181036000830152610b1d81610ae1565b9050919050565b7f4e487b7100000000000000000000000000000000000000000000000000000000600052602260045260246000fd5b60006002820490506001821680610b6b57607f821691505b602082108103610b7e57610b7d610b24565b5b50919050565b60008190508160005260206000209050919050565b60006020601f8301049050919050565b600082821b905092915050565b600060088302610be67fffffffffffffffffffffffffffffffffffffffffffffffffffffffffffffffff82610ba9565b610bf08683610ba9565b95508019841693508086168417925050509392505050565b6000819050919050565b6000610c2d610c28610c2384610827565b610c08565b610827565b9050919050565b6000819050919050565b610c4783610c12565b610c5b610c5382610c34565b848454610bb6565b825550505050565b600090565b610c70610c63565b610c7b818484610c3e565b505050565b5b81811015610c9f57610c94600082610c68565b600181019050610c81565b5050565b601f821115610ce457610cb581610b84565b610cbe84610b99565b81016020851015610ccd578190505b610ce1610cd985610b99565b830182610c80565b50505b505050565b600082821c905092915050565b6000610d0760001984600802610ce9565b1980831691505092915050565b6000610d208383610cf6565b9150826002028217905092915050565b610d3982610887565b67ffffffffffffffff811115610d5257610d51610589565b5b610d5c8254610b53565b610d67828285610ca3565b600060209050601f831160018114610d9a5760008415610d88578287015190505b610d928582610d14565b865550610dfa565b601f198416610da886610b84565b60005b82811015610dd057848901518255600182019150602085019450602081019050610dab565b86831015610ded5784890151610de9601f891682610cf6565b8355505b6001600288020188555050505b505050505050565b7f4e487b7100000000000000000000000000000000000000000000000000000000600052601160045260246000fd5b6000610e3c82610827565b91507fffffffffffffffffffffffffffffffffffffffffffffffffffffffffffffffff8203610e6e57610e6d610e02565b5b60018201905091905056fea26469706673582212205f804e006e1beb57e9f65db94965c4711d2bc2f6addd1ff7957a1f0bb26c44ac64736f6c634300080f0033",
  "immutableReferences": {},
  "source": "// SPDX-License-Identifier: MIT\r\npragma solidity ^0.8.15;\r\n\r\ncontract Test {\r\n    //  \r\n    address internal owner;\r\n    uint internal count;\r\n\r\n    //  \r\n    struct user_info{\r\n        string password;\r\n        string name;\r\n        uint8 age;\r\n    }\r\n\r\n    //  \r\n    //        \r\n    constructor(){\r\n        //  msg.sender deploy   \r\n        owner = msg.sender;\r\n        count = 0;\r\n    }\r\n\r\n    // mapping   \r\n    mapping (string => user_info) internal users;\r\n\r\n    //    \r\n    string[] internal user_list;\r\n\r\n    // modifier\r\n    modifier onlyOwner{\r\n        require(msg.sender == owner, \"Only owner can call function\");\r\n        _;\r\n    }\r\n\r\n    modifier increament{\r\n        _;\r\n        count++;\r\n    }\r\n\r\n    //   users mapping \r\n    function add_user(\r\n        string memory _id, \r\n        string memory _pass, \r\n        string memory _name, \r\n        uint8 _age\r\n    ) public onlyOwner increament {\r\n        // require(msg.sender == owner, \"only owner can call function\");\r\n        // mapping    \r\n        users[_id].password = _pass;\r\n        users[_id].name = _name;\r\n        users[_id].age = _age;\r\n        //   id  \r\n        user_list.push(_id);\r\n    }\r\n\r\n    //     \r\n    function view_user(\r\n        string memory _id\r\n    ) public view returns (\r\n        string memory, \r\n        string memory, \r\n        uint8\r\n    ){\r\n        return (\r\n            users[_id].password, \r\n            users[_id].name, \r\n            users[_id].age\r\n        );\r\n    }\r\n\r\n    // count   \r\n    function view_count() public view returns(uint){\r\n        return count;\r\n    }\r\n\r\n    //    \r\n    function view_list() public view returns(string[] memory){\r\n        return user_list;\r\n    }\r\n\r\n    //  ?  \r\n    function check_id(\r\n        string memory _id\r\n    ) public view returns (bool){\r\n        if (users[_id].age != 0){\r\n            return false;\r\n        }else{\r\n            return true;\r\n        }\r\n    }\r\n} ",
  "sourcePath": "C:\\Users\\moons\\Documents\\GitHub\\blockchain06\\contract_server\\contracts\\test.sol",
  "compiler": {
    "name": "solc",
    "version": "0.8.15+commit.e14f2714.Emscripten.clang"
  },
  "schemaVersion": "3.4.14",
  "updatedAt": "2023-06-14T07:45:57.818Z",
  "networkType": "ethereum",
  "devdoc": {
    "kind": "dev",
    "methods": {},
    "version": 1
  },
  "userdoc": {
    "kind": "user",
    "methods": {},
    "version": 1
  }
}